:100000000C9480000C94A8000C94A8000C94A800F8
:100010000C94A8000C94A8000C94A8000C94A800C0
:100020000C94A8000C94A8000C94A8000C94A800B0
:100030000C94A8000C94A8000C94A8000C94A800A0
:100040000C9439040C94A8000C94A9040C94830417
:100050000C94A8000C94A8000C94A8000C94A80080
:100060000C94A8000C94A8004E414E494E49545996
:10007000494E46CDCCCC3D0AD7233C17B7D1387773
:10008000CC2B329595E6241FB14F0A000020410089
:1000900000C84200401C4620BCBE4CCA1B0E5AAED3
:1000A000C59D7400000000240027002A0000000005
:1000B00000250028002B0000000000230026002956
:1000C0000000000008000201000003040700000017
:1000D00000000000000404040404040404020202FA
:1000E0000202020303030303030102040810204079
:1000F0008001020408102001020408102000DB0423
:1001000011241FBECFEFD8E0DEBFCDBF22E0AAE8AA
:10011000B1E001C01D92AD34B207E1F711E0A0E0FB
:10012000B1E0ECEDFCE102C005900D92AA38B107F8
:10013000D9F710E0C0E8D0E004C02197FE010E948A
:10014000480CCF37D107C9F70E9428050C946C0ED4
:100150000C9400000895833081F028F4813099F0E8
:100160008230A1F008958730A9F08830B9F084304A
:10017000D1F4809180008F7D03C0809180008F77C3
:1001800080938000089584B58F7702C084B58F7DF9
:1001900084BD08958091B0008F7703C08091B00036
:1001A0008F7D8093B0000895CF93DF93EEECF0E065
:1001B0008491E6EFF0E0D491E2EEF0E0C491CC233C
:1001C00091F081110E94AB00EC2FF0E0EE0FFF1FC9
:1001D000E954FF4FA591B491EC91ED2381E090E0BB
:1001E00021F480E002C080E090E0DF91CF9108959B
:1001F0003FB7F89480918F0190919001A091910167
:10020000B091920126B5A89B05C02F3F19F0019629
:10021000A11DB11D3FBFBA2FA92F982F8827820F8C
:10022000911DA11DB11DBC01CD0142E0660F771FDC
:10023000881F991F4A95D1F70895CF92DF92EF92C8
:10024000FF920F931F93CF93DF936C017A018B0181
:10025000C0E0D0E0CE15DF0581F0D8016D918D01B1
:10026000D601ED91FC910190F081E02DC601099538
:10027000892B11F02196EECF7E01C701DF91CF913E
:100280001F910F91FF90EF90DF90CF90089580E045
:1002900090E00895FC01538D448D252F30E0842F8C
:1002A00090E0821B930B541710F0CF96089501979E
:1002B0000895FC01918D828D981761F0828DDF0188
:1002C000A80FB11D5D968C91928D9F5F9F73928F49
:1002D00090E008958FEF9FEF08952FB7F8948091E5
:1002E000930190919401A0919501B09196012FBF37
:1002F00080939F019093A001A093A101B093A201CC
:1003000087E991E00E94590197FF26C02FB7F89422
:100310008091930190919401A0919501B0919601E3
:100320002FBF40919F015091A0016091A101709158
:10033000A201841B950BA60BB70B40919B0150911A
:100340009C0160919D0170919E0184179507A607FD
:10035000B707B0F28FEF9FEF0895FC01918D828D6A
:10036000981731F0828DE80FF11D858D90E008958A
:100370008FEF9FEF0895FC01918D228D892F90E0E2
:10038000805C9F4F821B91098F739927089587E99D
:1003900091E00E94BB0121E0892B09F420E0822F2B
:1003A0000895FC01848DDF01A80FB11DA35ABF4F32
:1003B0002C91848D90E001968F739927848FA68964
:1003C000B7892C93A089B1898C91837080648C93B8
:1003D000938D848D981306C00288F389E02D808167
:1003E0008F7D80830895EF92FF920F931F93CF9399
:1003F000DF93EC0181E0888F9B8D8C8D981305C075
:10040000E889F989808185FD26C0F62E0B8D10E0E4
:100410000F5F1F4F0F731127E02E8C8DE8120CC059
:100420000FB607FCFACFE889F989808185FFF5CFFF
:10043000CE010E94D101F1CF8B8DFE01E80FF11D9D
:10044000E35AFF4FF0829FB7F8940B8FEA89FB893C
:10045000808180620AC09FB7F894EE89FF8960832B
:10046000E889F98980818370806480839FBF81E0FF
:1004700090E0DF91CF911F910F91FF90EF90089541
:10048000CF93DF93EC01888D8823C9F0EA89FB893B
:10049000808185FD05C0A889B9898C9186FD0FC032
:1004A0000FB607FCF5CF808185FFF2CFA889B98907
:1004B0008C9185FFEDCFCE010E94D101E7CFDF9176
:1004C000CF91089580E090E0892B29F00E94C70128
:1004D00081110C9400000895009769F0FC010190CF
:1004E0000020E9F73197AF01481B590BBC0187E9A0
:1004F00091E00C941D0180E090E008958F929F920E
:10050000AF92BF920F931F93CF93DF93CDB7DEB718
:10051000A1970FB6F894DEBF0FBECDBF19A242302F
:1005200008F44AE08E010F5D1F4F842E912CA12C00
:10053000B12CA50194010E94260CE62FB901CA0135
:1005400001501109EA3014F4E05D01C0E95CD80102
:10055000EC93232B242B252B61F7C8010E946C02FE
:10056000A1960FB6F894DEBF0FBECDBFDF91CF913D
:100570001F910F91BF90AF909F908F9008958F9291
:100580009F92AF92BF92CF92DF92EF92FF920F9322
:100590001F93CF93DF936B017C01142F9B01AC0160
:1005A0000E94210C882319F08CE191E027C04601BC
:1005B0005701E894B7F82FEF3FEF4FE75FE7C5012A
:1005C000B4010E94210C81110DC02FEF3FEF4FE7C6
:1005D0005FE7C501B4010E94960918161CF480E279
:1005E00091E00CC02FEF3FEF4FE75FE4C701B6018A
:1005F0000E941C0C181684F484E291E0DF91CF91E4
:100600001F910F91FF90EF90DF90CF90BF90AF9030
:100610009F908F900C946C022FEF3FEF4FE75FECB1
:10062000C701B6010E94960987FDE6CF20E030E0C1
:10063000A901C701B6010E94960987FF0BC06DE2B0
:1006400087E991E00E94F301EC01F7FAF094F7F8E2
:10065000F09402C0C0E0D0E000E060E070E080E034
:100660009FE3101741F020E030E040E251E40E94A7
:100670007B0B0F5FF6CFA70196010E940F0B6B015A
:100680007C010E94ED0B4B015C014AE00E947E025E
:10069000C80FD91F1123B9F1C501B4010E949B09EC
:1006A0009B01AC01C701B6010E940E0B6B017C01DE
:1006B0006EE287E991E00E94F301C80FD91F20E0A4
:1006C00030E040E251E4C701B6010E94FC094B0151
:1006D0005C010E94ED0B6B01E12CF12C4AE0C7019B
:1006E000B6010E947E02C80FD91FC701B6010E9441
:1006F0009B099B01AC01C501B4010E940E0B6B016B
:100700007C011150E1F6CE01DF91CF911F910F9145
:10071000FF90EF90DF90CF90BF90AF909F908F9021
:100720000895FB0144815581FC0124813581241702
:10073000350778F080819181009759F0FB01608145
:1007400071816115710529F00E945E0E21E0892BEF
:1007500009F020E0822F08950F931F93CF93DF932A
:10076000EC0188819981009729F02A813B81261725
:10077000370788F48B016F5F7F4F0E946F0D0097E2
:1007800061F0998388831B830A832C813D81232B0D
:1007900011F4FC01108281E001C080E0DF91CF9173
:1007A0001F910F910895CF93DF93EC018881998178
:1007B000009711F00E94E60C198218821D821C829B
:1007C0001B821A82DF91CF910895EF92FF920F93CF
:1007D0001F93CF93DF93EC017B018A01BA010E9442
:1007E000AC03811104C0CE010E94D30307C01D8356
:1007F0000C83B701888199810E94570ECE01DF9149
:10080000CF911F910F91FF90EF900895CF93DF93B9
:10081000EC016115710559F0FB0101900020E9F729
:100820003197AF01461B570B0E94E50302C00E949F
:10083000D303CE01DF91CF910895FC011182108284
:1008400013821282158214826115710551F0FB0129
:1008500001900020E9F73197AF01461B570B0C942C
:10086000E5030895FC01808191810C94E60C0E94BF
:10087000350E1F920F920FB60F9211242F933F93B4
:100880008F939F93AF93BF93809193019091940125
:10089000A0919501B091960130918E0123E0230F34
:1008A0002D3720F40196A11DB11D05C026E8230FA8
:1008B0000296A11DB11D20938E0180939301909308
:1008C0009401A0939501B093960180918F0190912E
:1008D0009001A0919101B09192010196A11DB11DCD
:1008E00080938F0190939001A0939101B093920116
:1008F000BF91AF919F918F913F912F910F900FBE1C
:100900000F901F9018951F920F920FB60F921124FF
:100910002F933F934F935F936F937F938F939F9307
:10092000AF93BF93EF93FF9387E991E00E94D101CA
:10093000FF91EF91BF91AF919F918F917F916F91B7
:100940005F914F913F912F910F900FBE0F901F908D
:1009500018951F920F920FB60F9211242F938F9319
:100960009F93EF93FF93E091A701F091A8018081FD
:10097000E091AD01F091AE0182FD12C090818091B5
:10098000B0018F5F8F732091B101821751F0E09118
:10099000B001F0E0E956FE4F958F8093B00101C0A1
:1009A0008081FF91EF919F918F912F910F900FBEBA
:1009B0000F901F901895E7E9F1E01382128288EEFC
:1009C00093E0A0E0B0E084839583A683B7838EE0B4
:1009D00091E09183808385EC90E09587848784EC17
:1009E00090E09787868780EC90E0918B808B81ECFC
:1009F00090E0938B828B82EC90E0958B848B86ECDD
:100A000090E0978B868B118E128E138E148EA4E33A
:100A1000B2E08FE015968C9315978BE016968C9329
:100A20001697E8EFF0E0E4911796EC931797E4EE51
:100A3000F0E0E4911896EC93189740E85EE360E0EC
:100A400070E01D964D935D936D937C935097089540
:100A5000CF93DF93CDB7DEB762970FB6F894DEBFC2
:100A60000FBECDBF789484B5826084BD84B58160AB
:100A700084BD85B5826085BD85B5816085BD809169
:100A80006E00816080936E001092810080918100E1
:100A900082608093810080918100816080938100D9
:100AA000809180008160809380008091B10084609B
:100AB0008093B1008091B00081608093B0008091FC
:100AC0007A00846080937A0080917A0082608093BB
:100AD0007A0080917A00816080937A0080917A0018
:100AE000806880937A001092C100E091A701F09194
:100AF000A80182E08083E091A301F091A40110821B
:100B0000E091A501F091A6018FEC80831092AF01D6
:100B1000E091AB01F091AC0186E08083E091A90106
:100B2000F091AA01808180618083E091A901F09118
:100B3000AA01808188608083E091A901F091AA01D7
:100B4000808180688083E091A901F091AA01808171
:100B50008F7D808346EF242E40E0342EF1012491D6
:100B6000E2EEF0E08491882399F090E0880F991FDD
:100B7000FC01ED55FF4FA591B491FC01E355FF4FEA
:100B8000859194919FB7F8948C91822B8C939FBF01
:100B9000812C912C20EAA22E21E4B22E80928A018F
:100BA00090928B01A0928C01B0928D0120E030E0F8
:100BB00040EA51E4609100017091010180910201CD
:100BC000909103010E94960987FF08C088E291E096
:100BD0000E946C0281E391E00E946C020E94F80086
:100BE0002B013C0198EEC92E93E0D92EE12CF12C7B
:100BF0000E94F800DC01CB0184199509A609B70908
:100C0000883E9340A105B10598F3F1E0CF1AD108D1
:100C1000E108F10828EE420E23E0521E611C711C0F
:100C2000C114D104E104F10419F763E371E0CE01CA
:100C30000D960E941D0487E991E00E94BB01892B5B
:100C400009F4E6C163E371E0CE0101960E941D0440
:100C50000E946D0197FD1EC08A309105D9F08F83E7
:100C600018860D811E810F5F1F4FB801CE010196BE
:100C70000E94AC03882361F329813A818D819E8192
:100C8000BE01695F7F4F820F931F0E94570E1E8324
:100C90000D83DECF8D859E85009741F069817A8135
:100CA0006115710509F0C0C10E94E60C89819A8125
:100CB0009E878D878B819C81988B8F878D819E816C
:100CC0009A8B898B1A8219821C821B821E821D823A
:100CD000CE0101960E94320418861F821A86198658
:100CE0001C861B866D857E856115710531F04989ED
:100CF0005A89CE0107960E94E5034B855C856F817A
:100D0000788587E991E00E941D0181E391E00E94CE
:100D10006C028B859C85892B09F46AC00F8118852C
:100D200064E371E0C8010E944E0E892B09F043C0B4
:100D30000E94D4008C01EEECF0E08491F101F4907B
:100D4000E2EEF0E0E490EE20B1F081110E94AB0001
:100D5000EE2DF0E0EE0FFF1FE355FF4FA591B4918C
:100D60009FB7F8948C91012B19F0F094F82201C0F0
:100D7000F82AFC929FBF8BE391E00E946C020E94D4
:100D8000D4006C01990FEE08FF08F7FE0EC06DE26B
:100D900087E991E00E94F30166277727CB016C1960
:100DA0007D098E099F094AE003C04AE0C701B601E8
:100DB0000E947E0225C162E471E0C8010E944E0ECD
:100DC000892B49F460918A0170918B0180918C018B
:100DD00090918D01E0C068E471E0C8010E944E0E60
:100DE000892B31F442E060E070E080E891E4D4C007
:100DF00061E571E0CE0101960E941D04BE016F5FA6
:100E00007F4FCE0107960E949103182FCE010196C5
:100E10000E943204CB84DC841123F1F17601C114E9
:100E2000D10469F06F8078846DE370E0C3010E94A3
:100E3000430E009721F08C010619170902C00FEF2D
:100E40001FEF0F5F1F4FC016D10610F0780186010B
:100E500063E371E0CE0101960E941D04CB84DC8423
:100E6000EC14FD0408F079C00C151D0508F46801A8
:100E7000EF81F885EC0DFD1D108110826F81788562
:100E80006E0D7F1DCE0101960E9406048F8198850C
:100E9000FC01EC0DFD1D60C0CD2849F06AE571E054
:100EA0008F8198850E944E0E892B09F46CC063E6F1
:100EB00071E0CE0101960E941D04BE016F5F7F4F5D
:100EC000CE0107960E949103182FCE0101960E9431
:100ED0003204112309F463C0CB84DC84C114D1042F
:100EE00069F0EF80F8846DE370E0C7010E94430E63
:100EF000009721F08C010E191F0902C00FEF1FEFA0
:100F00000F5F1F4FC016D10628F09C2D8D2D680154
:100F1000092F182F63E371E0CE0101960E941D0492
:100F2000EB84FC84CE14DF04C0F40E151F0508F416
:100F30007801EF81F885EE0DFF1D108110826F8121
:100F400078856C0D7D1DCE0101960E9406048F816F
:100F50009885FC01EE0DFF1D108389819A81009711
:100F600019F00E94230803C060E070E0CB01609399
:100F70000001709301018093020190930301CE015F
:100F800001960E94320460910001709101018091EC
:100F900002019091030142E00E94BF0231C06CE661
:100FA00071E0CE0101960E941D048B859C85EF8027
:100FB000F8840D811E81080F191FE114F10479F1E5
:100FC000892B91F0B801CE0101960E94AC038823D1
:100FD00031F129813A818D819E81B701820F931F62
:100FE0000E94570E1E830D834D815E8169817A8137
:100FF00087E991E00E941D01CE0101960E94320412
:10100000CE0107960E9432048DE791E00E946C02A7
:10101000CE010D960E9432040E946202BFCDCE0125
:1010200001960E94D303E0CF4F8558892D813E81E0
:101030004217530708F438CE0E94570E8D819E81C7
:101040009A8B898B43CE662777270C942708A0E0DC
:10105000B0E0EDE2F8E00C94CE0AEC016B01611512
:10106000710519F0FB01918380837E01FFEFEF1A78
:10107000FF0A0881802F90E00E947509892B11F0EA
:10108000E701F3CF0D3239F47E0182E0E80EF11C66
:10109000098111E008C00B3229F47E0192E0E90ECB
:1010A000F11C098110E0E701219743E050E060E77F
:1010B00070E0CE010E947E09892BC1F4239645E0A1
:1010C00050E06BE670E0CE010E947E09892B09F4A6
:1010D0002596C114D10419F0F601D183C0831111F2
:1010E000F6C060E070E080E89FE7FAC043E050E0BF
:1010F00068E670E0CE010E947E09892B59F4C11484
:10110000D10409F4E9C0F2E0EF0EF11CF601F1821E
:10111000E082E2C020E030E0A901C0E0D0E0F701C9
:1011200080EDA82EA00E89E08A1530F1912F9260F3
:10113000B92E812F887012FF04C0811124C021961E
:1011400022C081112197A5E0B0E00E94BD0ADC0118
:10115000CB01880F991FAA1FBB1F9C01AD012A0D4F
:10116000311D411D511D283989E93807480789E19A
:10117000580748F0166006C09EEFA9120AC013FD7A
:1011800040C01860B12E8FEFE81AF80A00811B2DBD
:10119000C6CF802F8F7D8534A1F580818D3211F4EB
:1011A000106106C08B3221F0319661E070E004C01E
:1011B0008181329662E070E080538A3018F0E61B3D
:1011C000F70B1FC060E070E060389CE079075CF4CA
:1011D000DB01AA0FBB1FAA0FBB1F6A0F7B1F660F85
:1011E000771F680F711D3196DF0111978C91805325
:1011F0008A3050F314FF03C0719561957109C60FD1
:10120000D71F11FF08C0C114D10429F0CF010197E5
:10121000F60191838083CA01B9010E949B09212FA5
:101220002370233019F04B015C0106C04B015C01B7
:10123000B7FAB094B7F8B09420E030E0A901C50146
:10124000B4010E949609882309F43EC0D7FF06C066
:10125000D195C195D10907E810E002C00FE910E06F
:101260006801F8E1CF1AD10890E2E92EF12CCE15F1
:10127000DF0574F0F8012591359145915491C50130
:10128000B4010E94FC094B015C01CE19DF09EFCFCC
:1012900004501109F594E7940C151D0541F78A2DAA
:1012A000880F8B2D881F8F3F49F020E030E0A90187
:1012B000C501B4010E949609811106C082E290E046
:1012C0009093480280934702C501B40109C060E0D1
:1012D00070E080E89FEF04C060E070E080EC9FE782
:1012E000CDB7DEB7ECE00C94EA0A91110C94690AD0
:1012F000803219F089508550C8F70895FB01DC0150
:101300004150504088F08D9181341CF08B350CF4A5
:10131000805E659161341CF06B350CF4605E861B59
:10132000611171F3990B0895881BFCCF0E94D809B5
:1013300008F481E00895E89409C097FB3EF4909585
:101340008095709561957F4F8F4F9F4F9923A9F09E
:10135000F92F96E9BB279395F6958795779567952D
:10136000B795F111F8CFFAF4BB0F11F460FF1BC071
:101370006F5F7F4F8F4F9F4F16C0882311F096E904
:1013800011C0772321F09EE8872F762F05C06623B2
:1013900071F096E8862F70E060E02AF09A95660F6B
:1013A000771F881FDAF7880F9695879597F9089524
:1013B000990F0008550FAA0BE0E8FEEF1616170666
:1013C000E807F907C0F012161306E407F50798F0CE
:1013D000621B730B840B950B39F40A2661F0232BE7
:1013E000242B252B21F408950A2609F4A140A69563
:1013F0008FEF811D811D08950E940F0A0C94830AAE
:101400000E94750A38F00E947C0A20F0952311F0A2
:101410000C946C0A0C94720A11240C94B70A0E9462
:10142000940A70F3959FC1F3950F50E0551F629F8A
:10143000F001729FBB27F00DB11D639FAA27F00D2D
:10144000B11DAA1F649F6627B00DA11D661F829F54
:101450002227B00DA11D621F739FB00DA11D621F39
:10146000839FA00D611D221F749F3327A00D611D56
:10147000231F849F600D211D822F762F6A2F112438
:101480009F5750409AF0F1F088234AF0EE0FFF1F6B
:10149000BB1F661F771F881F91505040A9F79E3FC2
:1014A000510580F00C946C0A0C94B70A5F3FE4F38A
:1014B000983ED4F3869577956795B795F795E79518
:1014C0009F5FC1F7FE2B880F911D9695879597F921
:1014D000089599278827089597F99F6780E870E015
:1014E00060E008959FEF80EC089500240A9416169A
:1014F000170618060906089500240A941216130602
:10150000140605060895092E0394000C11F488238F
:1015100052F0BB0F40F4BF2B11F460FF04C06F5FAB
:101520007F4F8F4F9F4F089557FD9058440F551F81
:1015300059F05F3F71F04795880F97FB991F61F055
:101540009F3F79F087950895121613061406551FCC
:10155000F2CF4695F1DF08C0161617061806991F38
:10156000F1CF86957105610508940895E894BB272D
:1015700066277727CB0197F908950E94FF0AA59F58
:10158000900DB49F900DA49F800D911D112408957E
:101590002F923F924F925F926F927F928F929F9283
:1015A000AF92BF92CF92DF92EF92FF920F931F9371
:1015B000CF93DF93CDB7DEB7CA1BDB0B0FB6F89422
:1015C000DEBF0FBECDBF09942A88398848885F8462
:1015D0006E847D848C849B84AA84B984C884DF80D3
:1015E000EE80FD800C811B81AA81B981CE0FD11DB7
:1015F0000FB6F894DEBF0FBECDBFED010895A29FD8
:10160000B001B39FC001A39F700D811D1124911DD6
:10161000B29F700D811D1124911D08955058BB2754
:10162000AA270E94260B0C94830A0E94750A38F0A0
:101630000E947C0A20F039F49F3F19F426F40C94A0
:10164000720A0EF4E095E7FB0C946C0AE92F0E94F5
:10165000940A58F3BA17620773078407950720F0B6
:1016600079F4A6F50C94B60A0EF4E0950B2EBA2F79
:10167000A02D0B01B90190010C01CA01A001112498
:10168000FF27591B99F0593F50F4503E68F11A1644
:10169000F040A22F232F342F4427585FF3CF4695D5
:1016A00037952795A795F0405395C9F77EF41F16F7
:1016B000BA0B620B730B840BBAF09150A1F0FF0FC1
:1016C000BB1F661F771F881FC2F70EC0BA0F621FAD
:1016D000731F841F48F4879577956795B795F7959D
:1016E0009E3F08F0B0CF9395880F08F09927EE0F32
:1016F0009795879508950E948F0B0C94830A0E94FA
:101700007C0A58F00E94750A40F029F45F3F29F0E6
:101710000C946C0A51110C94B70A0C94720A0E9432
:10172000940A68F39923B1F3552391F3951B550B54
:10173000BB27AA2762177307840738F09F5F5F4FA4
:10174000220F331F441FAA1FA9F335D00E2E3AF0E3
:10175000E0E832D091505040E695001CCAF72BD0FB
:10176000FE2F29D0660F771F881FBB1F261737074C
:101770004807AB07B0E809F0BB0B802DBF01FF277E
:1017800093585F4F3AF09E3F510578F00C946C0AE5
:101790000C94B70A5F3FE4F3983ED4F386957795AF
:1017A0006795B795F7959F5FC9F7880F911D969537
:1017B000879597F90895E1E0660F771F881FBB1F93
:1017C000621773078407BA0720F0621B730B840B40
:1017D000BA0BEE1F88F7E09508950E949C0A88F0E6
:1017E0009F5798F0B92F9927B751B0F0E1F0660FE5
:1017F000771F881F991F1AF0BA95C9F714C0B13026
:1018000091F00E94B60AB1E008950C94B60A672FD1
:10181000782F8827B85F39F0B93FCCF38695779554
:101820006795B395D9F73EF490958095709561953D
:101830007F4F8F4F9F4F08950E94D80908F48FEF74
:1018400008950E94D809880B990B0895A1E21A2ED9
:10185000AA1BBB1BFD010DC0AA1FBB1FEE1FFF1F54
:10186000A217B307E407F50720F0A21BB30BE40BA4
:10187000F50B661F771F881F991F1A9469F76095EB
:101880007095809590959B01AC01BD01CF010895A5
:10189000EE0FFF1F0590F491E02D09940F931F9315
:1018A000CF93DF938230910510F482E090E0E091D5
:1018B0004B02F0914C0220E030E0A0E0B0E0309725
:1018C00019F1408151810281138148175907C8F0ED
:1018D0008417950769F4109731F012960C931297BC
:1018E00013961C9327C000934B0210934C0222C006
:1018F0002115310519F04217530718F49A01BD015B
:10190000EF01DF01F801DBCF21153105F9F0281BCC
:10191000390B2430310580F48A819B816115710572
:1019200021F0FB019383828304C090934C02809347
:101930004B02FE01329644C0FE01E20FF31F819379
:10194000919322503109398328833AC0209149026A
:1019500030914A02232B41F4209106013091070176
:1019600030934A02209349022091040130910501ED
:101970002115310541F42DB73EB740910801509132
:101980000901241B350BE0914902F0914A02E2174C
:10199000F307A0F42E1B3F0B2817390778F0AC0192
:1019A0004E5F5F4F2417350748F04E0F5F1F50936F
:1019B0004A02409349028193919302C0E0E0F0E033
:1019C000CF01DF91CF911F910F910895CF93DF93B6
:1019D000009709F481C0FC01329713821282A09112
:1019E0004B02B0914C02109781F420813181820F1B
:1019F000931F2091490230914A022817390751F567
:101A0000F0934A02E093490267C0ED0120E030E024
:101A1000CE17DF0740F44A815B819E0141155105D5
:101A2000F1F0EA01F5CFD383C28340815181840F65
:101A3000951FC817D90759F488819981840F951F7C
:101A40000296918380838A819B819383828321156F
:101A5000310529F4F0934C02E0934B023DC0E901BB
:101A6000FB83EA8349915991C40FD51FEC17FD07F9
:101A700061F480819181840F951F0296E901998319
:101A80008883828193819B838A83E0E0F0E01296D1
:101A90008D919C911397009719F0FD01DC01F7CF10
:101AA0008D919C9111979D012E5F3F4F820F931F47
:101AB0002091490230914A022817390769F430977A
:101AC00029F410924C0210924B0202C0138212822F
:101AD000B0934A02A0934902DF91CF910895A0E00C
:101AE000B0E0E5E7FDE00C94CC0AEC01009721F4AE
:101AF000CB010E944E0CB4C0FC01E60FF71F9C0105
:101B000022503109E217F30708F4A8C0D9010D915A
:101B10001C91119706171707B0F00530110508F44E
:101B20009BC0C80104978617970708F495C0025018
:101B30001109061B170B019311936D937C93CF0131
:101B40000E94E60C89C05B01A01AB10A4C01800E0C
:101B5000911EA0914B02B0914C02612C712CE12C92
:101B6000F12C109709F446C08D919C911197A815FE
:101B7000B905B1F56C0142E0C40ED11CCA14DB04F6
:101B800078F14C018A189B08640142E0C40ED11C14
:101B90001296BC9012971396AC91B5E0CB16D10477
:101BA00040F0B282A38391828082D9016D937C93AD
:101BB00009C00E5F1F4F800F911FF9019183808331
:101BC000EB2DFA2FE114F10431F0D7011396FC93B9
:101BD000EE93129741C0F0934C02E0934B023CC04D
:101BE0006816790608F43C017D0112960D90BC91AF
:101BF000A02DB7CF8091490290914A02881699068C
:101C0000E1F466167706C8F480910401909105010D
:101C1000009741F48DB79EB740910801509109019A
:101C2000841B950BE817F907C8F4F0934A02E09378
:101C30004902F901718360830FC0CB010E944E0CF1
:101C40007C01009759F0A801BE010E943A0ECE0116
:101C50000E94E60CC70104C0CE0102C080E090E003
:101C6000CDB7DEB7EEE00C94E80A81E090E0F8949E
:101C70000C946C0EFB01DC0102C001900D924150EE
:101C80005040D8F70895FC018191861721F08823F0
:101C9000D9F7992708953197CF010895FB01DC0109
:101CA0008D91019080190110D9F3990B0895FB01D2
:101CB000DC0101900D920020E1F70895FB01DC01A9
:101CC0004150504030F08D910190801919F400205E
:0C1CD000B9F7881B990B0895F894FFCF1A
:101CDC000000C84100004D02800000000000F3012C
:101CEC001D014A014002BB015901AD016E616E003C
:101CFC00696E66006F7666006C696761722061724E
:101D0C00000D0A004C454431330D004C4544313331
:101D1C003D0054454D500D0054454D504D494E0D10
:101D2C000054454D504D494E3D0054454D504D418C
:101D3C00580D0054454D504D41583D00756E6B6E1D
:101D4C006F7720636F6D6D616E643A20000D0A73BE
:0A1D5C006D617254656D703E200049
:00000001FF
